S01900004D434232303234325F4E6F64655F57534E2E7372656303
S31508000000005000200D2C0008ED290008F5290008ED
S31508000010FD290008052A00080D2A0008000000002E
S31508000020000000000000000000000000152A00087B
S31508000030212A0008000000002D2A0008392A000895
S31508000040552C0008552C0008552C0008452A000890
S31508000050552C0008552C0008592A0008552C00086C
S31508000060552C0008552C0008552C0008552C00085E
S31508000070552C0008552C0008552C0008552C00084E
S31508000080552C0008552C0008552C0008552C00083E
S31508000090552C0008552C0008552C0008552C00082E
S315080000A0552C0008552C0008552C0008552C00081E
S315080000B0552C0008552C0008552C0008552C00080E
S315080000C0552C0008552C0008552C0008552C0008FE
S315080000D0552C0008552C0008552C0008552C0008EE
S315080000E0552C0008692A0008552C00080000000055
S315080000F000000000000000000000000000000000F2
S3110800010000000000000000005FF808F195
S3150800011010B5054C237833B9044B13B10448AFF333
S3150800012000800123237010BDE001002000000000BC
S31508000130ECA1000808B5034B1BB103490348AFF30C
S31508000140008008BD00000000E4010020ECA10008C2
S3150800015010F8012B11F8013B012A28BF9A42F7D063
S31508000160D01A7047034613F8012B002AFBD1181A38
S315080001700138704781F0004102E000BF83F0004378
S3150800018030B54FEA41044FEA430594EA050F08BF24
S3150800019090EA020F1FBF54EA000C55EA020C7FEAE8
S315080001A0645C7FEA655C00F0E2804FEA5454D4EB65
S315080001B05555B8BF6D420CDD2C4480EA020281EA2F
S315080001C0030382EA000083EA010180EA020281EA67
S315080001D00303362D88BF30BD11F0004F4FEA0131B9
S315080001E04FF4801C4CEA113102D0404261EB4101C8
S315080001F013F0004F4FEA03334CEA133302D052424E
S3150800020063EB430394EA050F00F0A780A4F1010409
S31508000210D5F1200E0DDB02FA0EFC22FA05F2801843
S3150800022041F1000103FA0EF2801843FA05F3594129
S315080002300EE0A5F120050EF1200E012A03FA0EFCA8
S3150800024028BF4CF0020C43FA05F3C01851EBE371D2
S3150800025001F0004507D54FF0000EDCF1000C7EEBEF
S3150800026000006EEB0101B1F5801F1BD3B1F5001F2D
S315080002700CD349085FEA30004FEA3C0C04F101044C
S315080002804FEA445212F5800F80F09A80BCF1004F75
S3150800029008BF5FEA500C50F1000041EB045141EAF7
S315080002A0050130BD5FEA4C0C404141EB0101013CC0
S315080002B028BFB1F5801FE9D291F0000F04BF0146AF
S315080002C00020B1FA81F308BF2033A3F10B03B3F181
S315080002D020020CDA0C3208DD02F1140CC2F10C0211
S315080002E001FA0CF021FA02F10CE002F11402D8BF6F
S315080002F0C2F1200C01FA02F120FA0CFCDCBF41EA3B
S315080003000C019040E41AA2BF01EB0451294330BD09
S315080003106FEA04041F3C1CDA0C340EDC04F11404E6
S31508000320C4F1200220FA04F001FA02F340EA0300BD
S3150800033021FA04F345EA030130BDC4F10C04C4F103
S31508000340200220FA02F001FA04F340EA03002946E3
S3150800035030BD21FA04F0294630BD94F0000F83F42D
S31508000360801306BF81F480110134013D4EE77FEA10
S31508000370645C18BF7FEA655C29D094EA050F08BF5C
S3150800038090EA020F05D054EA000C04BF194610463D
S3150800039030BD91EA030F1EBF0021002030BD5FEA81
S315080003A0545C05D14000494128BF41F0004130BDA9
S315080003B014F580043CBF01F5801130BD01F00045FD
S315080003C045F0FE4141F470014FF0000030BD7FEA70
S315080003D0645C1ABF194610467FEA655C1CBF0B466B
S315080003E0024650EA013406BF52EA033591EA030F82
S315080003F041F4002130BD00BF90F0000F04BF00217A
S31508000400704730B54FF4806404F132044FF00005AC
S315080004104FF0000150E700BF90F0000F04BF002125
S31508000420704730B54FF4806404F1320410F000458B
S3150800043048BF40424FF000013EE700BF42004FEA86
S31508000440E2014FEA31014FEA02701FBF12F07F4303
S3150800045093F07F4F81F06051704732F07F4208BFBA
S31508000460704793F07F4F04BF41F40021704730B5C1
S315080004704FF4607401F0004521F000411CE700BF0D
S3150800048050EA010208BF704730B54FF000050AE090
S3150800049050EA010208BF704730B511F0004502D591
S315080004A0404261EB41014FF4806404F132045FEA93
S315080004B0915C3FF4D8AE4FF003025FEADC0C18BF3C
S315080004C003325FEADC0C18BF033202EBDC02C2F12E
S315080004D0200300FA03FC20FA02F001FA03FE40EAC0
S315080004E00E0021FA02F11444BDE600BF70B54FF0C4
S315080004F0FF0C4CF4E06C1CEA11541DBF1CEA1355A2
S3150800050094EA0C0F95EA0C0F00F0DEF82C4481EA09
S31508000510030621EA4C5123EA4C5350EA013518BF29
S3150800052052EA033541F4801143F4801338D0A0FB16
S3150800053002CE4FF00005E1FB02E506F00042E0FBC3
S3150800054003E54FF00006E1FB03569CF0000F18BFC9
S315080005504EF0010EA4F1FF04B6F5007F64F5407471
S3150800056004D25FEA4E0E6D4146EB060642EAC62104
S3150800057041EA55514FEAC52040EA5E504FEACE2E71
S31508000580B4F1FD0C88BFBCF5E06F1ED8BEF1004F74
S3150800059008BF5FEA500E50F1000041EB045170BDF0
S315080005A006F0004646EA010140EA020081EA030134
S315080005B0B4EB5C04C2BFD4EB0C0541EA045170BD30
S315080005C041F480114FF0000E013C00F3AB8014F1AA
S315080005D0360FDEBF002001F0004170BDC4F10004F3
S315080005E0203C35DA0C341BDC04F11404C4F1200574
S315080005F000FA05F320FA04F001FA05F240EA0200CF
S3150800060001F0004221F0004110EBD37021FA04F604
S3150800061042EB06015EEA430E08BF20EAD37070BDBE
S31508000620C4F10C04C4F1200500FA04F320FA05F01D
S3150800063001FA04F240EA020001F0004110EBD3701F
S3150800064041F100015EEA430E08BF20EAD37070BD8F
S31508000650C4F1200500FA05F24EEA020E20FA04F368
S3150800066001FA05F243EA020321FA04F001F0004117
S3150800067021FA04F220EA020000EBD3705EEA430E88
S3150800068008BF20EAD37070BD94F0000F0FD101F0B7
S315080006900046400041EB010111F4801F08BF013CF0
S315080006A0F7D041EA060195F0000F18BF704703F02E
S315080006B00046520043EB030313F4801F08BF013DB5
S315080006C0F7D043EA0603704794EA0C0F0CEA135571
S315080006D018BF95EA0C0F0CD050EA410618BF52EA2B
S315080006E04306D1D181EA030101F000414FF0000031
S315080006F070BD50EA410606BF1046194652EA43063F
S3150800070019D094EA0C0F02D150EA013613D195EAB2
S315080007100C0F05D152EA03361CBF104619460AD1FA
S3150800072081EA030101F0004141F0FE4141F4700104
S315080007304FF0000070BD41F0FE4141F4780170BDF4
S3150800074070B54FF0FF0C4CF4E06C1CEA11541DBF59
S315080007501CEA135594EA0C0F95EA0C0F00F0A7F85B
S31508000760A4EB050481EA030E52EA03354FEA013188
S3150800077000F088804FEA03334FF0805545EA13139B
S3150800078043EA12634FEA022245EA111545EA106563
S315080007904FEA00260EF000419D4208BF964244F1FA
S315080007A0FD0404F5407402D25B084FEA3202B61A19
S315080007B065EB03055B084FEA32024FF480104FF4ED
S315080007C0002CB6EB020E75EB030E22BFB61A754661
S315080007D040EA0C005B084FEA3202B6EB020E75EBF4
S315080007E0030E22BFB61A754640EA5C005B084FEA5C
S315080007F03202B6EB020E75EB030E22BFB61A754629
S3150800080040EA9C005B084FEA3202B6EB020E75EB33
S31508000810030E22BFB61A754640EADC0055EA060EF4
S3150800082018D04FEA051545EA16754FEA06164FEA37
S31508000830C30343EA52734FEAC2025FEA1C1CC0D1E3
S3150800084011F4801F0BD141EA00014FF000004FF070
S31508000850004CB6E711F4801F04BF01430020B4F131
S31508000860FD0C88BFBCF5E06F3FF6AFAEB5EB030CE9
S3150800087004BFB6EB020C5FEA500C50F1000041EBE6
S31508000880045170BD0EF0004E4EEA113114EB5C04B3
S31508000890C2BFD4EB0C0541EA045170BD41F4801186
S315080008A04FF0000E013C90E645EA060E8DE60CEA8E
S315080008B0135594EA0C0F08BF95EA0C0F3FF43BAFAB
S315080008C094EA0C0F0AD150EA01347FF434AF95EA62
S315080008D00C0F7FF425AF104619462CE795EA0C0F46
S315080008E006D152EA03353FF4FDAE1046194622E713
S315080008F050EA410618BF52EA43067FF4C5AE50EAED
S3150800090041047FF40DAF52EA43057FF4EBAE12E7DC
S315080009104FF0FF3C06E000BF4FF0010C02E000BFBD
S315080009204FF0010C4DF804CD4FEA410C7FEA6C5CA0
S315080009304FEA430C18BF7FEA6C5C1BD001B050EA43
S31508000940410C0CBF52EA430C91EA030F02BF90EA2E
S31508000950020F0020704710F1000F91EA030F58BFED
S31508000960994208BF90422CBFD8176FEAE37040F04F
S31508000970010070474FEA410C7FEA6C5C02D150EAED
S31508000980013C07D14FEA430C7FEA6C5CD6D152EAA8
S31508000990033CD3D05DF8040B704700BF844610466D
S315080009A062468C461946634600E000BF01B5FFF76C
S315080009B0B7FF002848BF10F1000F01BD4DF808ED3C
S315080009C0FFF7F4FF0CBF012000205DF808FB00BF0D
S315080009D04DF808EDFFF7EAFF34BF012000205DF867
S315080009E008FB00BF4DF808EDFFF7E0FF94BF0120B4
S315080009F000205DF808FB00BF4DF808EDFFF7CEFFB5
S31508000A0094BF012000205DF808FB00BF4DF808EDF3
S31508000A10FFF7C4FF34BF012000205DF808FB00BFC4
S31508000A204FEA410C7FEA6C5C02D150EA013C0AD1DC
S31508000A304FEA430C7FEA6C5C02D152EA033C02D1CE
S31508000A404FF0000070474FF0010070474FEA41022F
S31508000A5012F5001215D211D56FF47873B3EB625202
S31508000A6012D94FEAC12343F0004343EA505311F029
S31508000A70004F23FA02F018BF404270474FF00000BB
S31508000A80704750EA013005D111F0004008BF6FF0F9
S31508000A90004070474FF00000704700BF4A0011D26F
S31508000AA012F5001211D20DD56FF47873B3EB6252BA
S31508000AB00ED44FEAC12343F0004343EA505323FAC6
S31508000AC002F070474FF00000704750EA013002D13B
S31508000AD04FF0FF3070474FF0000070474FEA410271
S31508000AE0B2F1E04324BFB3F5001CDCF1FE5C0DD97E
S31508000AF001F0004C4FEAC0024CEA5070B2F1004FC8
S31508000B0040EB830008BF20F00100704711F0804FCA
S31508000B1021D113F13872BCBF01F00040704741F48F
S31508000B2080114FEA5252C2F11802C2F1200C10FA93
S31508000B300CF320FA02F018BF40F001004FEAC12377
S31508000B404FEAD32303FA0CFC40EA0C0023FA02F31B
S31508000B504FEA4303CCE77FEA625307D150EA0133F1
S31508000B601EBF4FF0FE4040F44000704701F00040C1
S31508000B7040F0FE4040F40000704700BF80F000409F
S31508000B8002E000BF81F0004142001FBF5FEA410357
S31508000B9092EA030F7FEA226C7FEA236C6AD04FEA57
S31508000BA01262D2EB1363C1BFD2184140484041409C
S31508000BB0B8BF5B42192B88BF704710F0004F40F44E
S31508000BC0000020F07F4018BF404211F0004F41F46A
S31508000BD0000121F07F4118BF494292EA030F3FD036
S31508000BE0A2F1010241FA03FC10EB0C00C3F1200349
S31508000BF001FA03F100F0004302D5494260EB4000D8
S31508000C00B0F5000F13D3B0F1807F06D340084FEA42
S31508000C10310102F10102FE2A51D2B1F1004F40EB37
S31508000C20C25008BF20F0010040EA0300704749009F
S31508000C3040EB0000013A28BFB0F5000FEDD2B0FA3C
S31508000C4080FCACF1080CB2EB0C0200FA0CF0AABF5F
S31508000C5000EBC25052421843BCBFD04018437047FD
S31508000C6092F0000F81F4000106BF80F40000013203
S31508000C70013BB5E74FEA41037FEA226C18BF7FEADA
S31508000C80236C21D092EA030F04D092F0000F08BF1C
S31508000C900846704790EA010F1CBF0020704712F003
S31508000CA07F4F04D1400028BF40F00040704712F142
S31508000CB000723CBF00F50000704700F0004343F0A7
S31508000CC0FE4040F4000070477FEA226216BF0846DD
S31508000CD07FEA23630146420206BF5FEA412390EAA0
S31508000CE0010F40F4800070474FF0000304E000BF96
S31508000CF010F0004348BF40425FEA000C08BF704747
S31508000D0043F0964301464FF000001CE050EA01020A
S31508000D1008BF70474FF000030AE000BF50EA01021F
S31508000D2008BF704711F0004302D5404261EB41010C
S31508000D305FEA010C02BF84460146002043F0B64331
S31508000D4008BFA3F18053A3F50003BCFA8CF2083A56
S31508000D50A3EBC25310DB01FA02FC634400FA02FC5F
S31508000D60C2F12002BCF1004F20FA02F243EB020066
S31508000D7008BF20F00100704702F1200201FA02FCC8
S31508000D80C2F1200250EA4C0021FA02F243EB0200BB
S31508000D9008BF20EADC7070474FF0FF0C1CEAD052FF
S31508000DA01EBF1CEAD15392EA0C0F93EA0C0F6FD0C0
S31508000DB01A4480EA010C400218BF5FEA41211ED09E
S31508000DC04FF0006343EA501043EA5111A0FB01318A
S31508000DD00CF00040B1F5000F3EBF490041EAD3715F
S31508000DE05B0040EA010062F17F02FD2A1DD8B3F1DB
S31508000DF0004F40EBC25008BF20F00100704790F04A
S31508000E00000F0CF0004C08BF49024CEA502040EA9B
S31508000E1051207F3AC2BFD2F1FF0340EAC250704761
S31508000E2040F400004FF00003013A5DDC12F1190F9F
S31508000E30DCBF00F000407047C2F10002410021FA11
S31508000E4002F1C2F1200200FA02FC5FEA310040F129
S31508000E50000053EA4C0308BF20EADC70704792F0A2
S31508000E60000F00F0004C02BF400010F4000F013ADA
S31508000E70F9D040EA0C0093F0000F01F0004C02BFD5
S31508000E80490011F4000F013BF9D041EA0C018FE744
S31508000E900CEAD15392EA0C0F18BF93EA0C0F0AD04A
S31508000EA030F0004C18BF31F0004CD8D180EA010070
S31508000EB000F00040704790F0000F17BF90F0004F09
S31508000EC0084691F0000F91F0004F14D092EA0C0FEB
S31508000ED001D142020FD193EA0C0F03D14B0218BF7E
S31508000EE0084608D180EA010000F0004040F0FE40C4
S31508000EF040F40000704740F0FE4040F44000704760
S31508000F004FF0FF0C1CEAD0521EBF1CEAD15392EADE
S31508000F100C0F93EA0C0F69D0A2EB030280EA010CCE
S31508000F2049024FEA402037D04FF0805343EA111167
S31508000F3043EA10130CF000408B4238BF5B0042F1C5
S31508000F407D024FF4000C8B4224BF5B1A40EA0C006A
S31508000F50B3EB510F24BFA3EB510340EA5C00B3EB9C
S31508000F60910F24BFA3EB910340EA9C00B3EBD10F8A
S31508000F7024BFA3EBD10340EADC001B0118BF5FEADC
S31508000F801C1CE0D1FD2A3FF650AF8B4240EBC25005
S31508000F9008BF20F0010070470CF0004C4CEA5020C6
S31508000FA07F32C2BFD2F1FF0340EAC250704740F415
S31508000FB000004FF00003013A37E792F0000F00F007
S31508000FC0004C02BF400010F4000F013AF9D040EA85
S31508000FD00C0093F0000F01F0004C02BF490011F419
S31508000FE0000F013BF9D041EA0C0195E70CEAD15311
S31508000FF092EA0C0F08D142027FF47DAF93EA0C0FF8
S315080010007FF470AF084676E793EA0C0F04D14B02DB
S315080010103FF44CAF08466EE730F0004C18BF31F08D
S31508001020004CCAD130F000427FF45CAF31F0004387
S315080010307FF43CAF5FE700BF4FF0FF3C06E000BF20
S315080010404FF0010C02E000BF4FF0010C4DF804CD43
S315080010504FEA40024FEA41037FEA226C18BF7FEA53
S31508001060236C11D001B052EA530C18BF90EA010F55
S3150800107058BFB2EB030088BFC81738BF6FEAE170E4
S3150800108018BF40F0010070477FEA226C02D15FEA80
S31508001090402C05D17FEA236CE4D15FEA412CE1D0EC
S315080010A05DF8040B704700BF844608466146FFE7B3
S315080010B00FB5FFF7C9FF002848BF10F1000F0FBD95
S315080010C04DF808EDFFF7F4FF0CBF012000205DF88E
S315080010D008FB00BF4DF808EDFFF7EAFF34BF012013
S315080010E000205DF808FB00BF4DF808EDFFF7E0FFAC
S315080010F094BF012000205DF808FB00BF4DF808EDFD
S31508001100FFF7D2FF94BF012000205DF808FB00BF5F
S315080011104DF808EDFFF7C8FF34BF012000205DF841
S3150800112008FB00BF53B94AB9002908BF00281CBFED
S315080011304FF0FF314FF0FF3000F09EB9ADF1080CCB
S315080011406DE904CE00F03CF8DDF804E0DDE90223A1
S3150800115004B0704738B50022002304460D46FFF751
S3150800116037FC28B920462946BDE8384000F00AB8B9
S31508001170204605F1004100F005F8404261EB4101C7
S3150800118038BD00BFD0B500220B4B06460F46FFF709
S31508001190ADF9FFF783FC0446FFF72EF90022074B4B
S315080011A0FFF7A4F902460B4630463946FEF7E6FF36
S315080011B0FFF774FC2146D0BD0000F03D0000F04169
S315080011C02DE9F047089D0C46002B4ED194468C45D8
S315080011D08646B2FA82F262D94AB1C2F12003914038
S315080011E020FA03F30CFA02FC194300FA02FE4FEA4E
S315080011F01C47B1FBF7F407FB14111FFA8CF64FEAEC
S315080012001E4343EA014304FB06F199420AD91CEB43
S31508001210030304F1FF3080F01081994240F20D81FA
S31508001220023C6344591AB1FBF7F007FB101100FBA7
S3150800123006F61FFA8EF343EA01439E420AD91CEBCF
S31508001240030300F1FF3180F0FA809E4240F2F780F6
S315080012506344023800219B1B40EA04401DB1D34079
S315080012600022C5E90032BDE8F0878B4205D90DB1E9
S31508001270C5E9000100210846F5E7B3FA83F100291C
S3150800128046D1A34202D39042C0F0EE80861A64EBA0
S3150800129003030120002DE6D0C5E90063E3E7002A31
S315080012A040F08F80A1EB0C0401214FEA1C481FFA7D
S315080012B08CF7B4FBF8F608FB164407FB06F04FEA72
S315080012C01E4343EA0443984208D91CEB030306F17C
S315080012D0FF3402D2984200F2CB8026461C1AB4FB91
S315080012E0F8F008FB104400FB07F71FFA8EF343EAF1
S315080012F004439F4208D91CEB030300F1FF3402D2D2
S315080013009F4200F2AE802046DB1B40EA0640A5E776
S31508001310C1F120078B4022FA07FC4CEA030C24FA99
S3150800132007F64FEA1C49B6FBF9F81FFA8CFE09FBCB
S31508001330186620FA07F38C4000FA01FA08FB0EF04B
S315080013401C43230C43EA0643984202FA01F20AD9DF
S315080013501CEB030308F1FF3680F0818098427ED9A2
S31508001360A8F1020863441E1AB6FBF9F309FB1366D3
S3150800137003FB0EFEA4B244EA0644A64508D91CEBB4
S31508001380040403F1FF3066D2A64564D9023B6444DF
S3150800139043EA0840A0FB0283A4EB0E049C42C6461F
S315080013A01E4650D34DD055B1BAEB0E0364EB060476
S315080013B004FA07F7CB401F43CC40C5E90074002167
S315080013C051E70CFA02FCC2F12003D9404FEA1C4847
S315080013D020FA03F300FA02FEB1FBF8F008FB10113D
S315080013E094401C431FFA8CF7230C43EA014300FB85
S315080013F007F1994208D91CEB030300F1FF362CD2FA
S3150800140099422AD9023863445B1AB3FBF8F108FB00
S315080014101133A4B244EA034401FB07F3A34208D9F3
S315080014201CEB040401F1FF3613D2A34211D9023989
S315080014306444E41A41EA00413BE70446F2E60846FA
S3150800144008E7C245AFD2B8EB020E63EB0C060138CB
S31508001450A9E73146EDE703469AE73046D4E7B046B2
S3150800146081E7634402384FE706462346084611E7F4
S31508001470023E634432E700BF704700BF80B483B0C2
S3150800148000AF78600A4B1B680A4AA2FB0323DB0DF0
S315080014907A6802FB03F37B6000BF7B685A1E7A609A
S315080014A0002BFAD100BF00BF0C37BD4680BC704781
S315080014B00C000020B5FA9BEE80B584B000AF3B4621
S315080014C000221A605A609A60DA6004210E4801F018
S315080014D0DBFE04233B6011237B600023BB600323F0
S315080014E0FB603B461946084801F04AFD4FF47A70FE
S315080014F001F014FC01220421034801F098FF00BF03
S315080015001037BD4680BD00BF0008014080B586B0D3
S3150800151000AF7860396000237B75002204215E489D
S3150800152001F085FF012204215B4801F080FF5B483A
S31508001530FFF7A4FF00220421574801F078FF44F280
S315080015405060FFF79BFF01220421534801F06FFF0B
S315080015502720FFF793FF04214F4801F051FF034668
S31508001560012B01D1002393E05020FFF787FF0421C8
S31508001570494801F045FF0346002B01D1002387E0C7
S315080015805020FFF77BFF00237B7540E07B7D1833F7
S315080015903B44002203F8102C0023BB7531E000BF42
S315080015A004213D4801F02CFF0346002BF8D01E20ED
S315080015B0FFF764FF0421384801F022FF0346002B99
S315080015C014D07B7D18333B4413F8103C5AB2BB7DCC
S315080015D0C3F10703012101FA03F35BB213435AB2BD
S315080015E07B7DD2B218333B4403F8102C00BF04218C
S315080015F0294801F005FF0346012BF8D0BB7D0133CE
S31508001600BB75BB7D072BCAD97B7D01337B757B7D7B
S31508001610042BBBD90023FB7500233B750AE03B7DF1
S3150800162018333B4413F8102CFB7D1344FB753B7DA4
S3150800163001333B753B7D032BF1D9BB7A1B021AB2EA
S31508001640FB7A1BB213431BB27B823B7A1B021AB28C
S315080016507B7A1BB213431BB23B827B8A1846FFF781
S3150800166047FB03460E491846FFF74AFC03461A4647
S315080016707B681A603B8A1846FFF73AFB0346084917
S315080016801846FFF73DFC03461A463B681A600123D5
S3150800169018461837BD4680BD00080140A0860100DF
S315080016A00000204180B584B000AF78600B46FB701F
S315080016B0FB7803F07F03DBB2FB730023BB737B6805
S315080016C01B6858697B681B681B699BB20022194610
S315080016D001F0ADFE7B681B68986907F10F014FF4AE
S315080016E07A73012202F06FFE00BF7B681B689B6954
S315080016F0184603F06EFA0346012BF6D17B681B6881
S31508001700986907F10E014FF47A73012202F09FFFE0
S3150800171000BF7B681B689B69184603F05AFA0346A4
S31508001720012BF6D17B681B6858697B681B681B69A7
S315080017309BB20122194601F07AFEBB7B1846103788
S31508001740BD4680BD80B584B000AF78600B46FB709F
S315080017501346BB70FB7863F07F03DBB2FB737B68D1
S315080017601B6858697B681B681B699BB2002219466F
S3150800177001F05DFE7B681B68986907F10F014FF45D
S315080017807A73012202F01FFE00BF7B681B689B6903
S31508001790184603F01EFA0346012BF6D17B681B6830
S315080017A09869B91C4FF47A73012202F00CFE00BF47
S315080017B07B681B689B69184603F00BFA0346012BE6
S315080017C0F6D17B681B6858697B681B681B699BB2E6
S315080017D00122194601F02BFE00BF1037BD4680BD19
S315080017E080B584B000AF78607B681B6858687B68F2
S315080017F01B681B689BB20022194601F018FE0A20D6
S3150800180001F08CFA7B681B6858687B681B681B6844
S315080018109BB20122194601F00AFE0A2001F07EFA5F
S3150800182042217868FFF73EFF0346FB73FB7B122BCA
S3150800183001D0012352E0802201217868FFF782FF58
S315080018407B681B79274ADB001344D3E900237868B1
S3150800185000F064F97B685B791A46234B9B5C194652
S31508001860786800F0A1F97B689B791946786800F0DA
S31508001870BDF97B68DB791946786800F0DBF97B6887
S315080018801B7A1946786800F001FA00220E2178685A
S31508001890FFF758FF00220F217868FFF753FF0C2146
S315080018A07868FFF7FFFE0346FB73FB7B43F00303F1
S315080018B0DBB21A460C217868FFF744FF042226217A
S315080018C07868FFF73FFF8F2209217868FFF73AFF0C
S315080018D0812201217868FFF735FF00231846103763
S315080018E0BD4680BDB0A20008D0A2000880B584B06D
S315080018F000AF78600023FB6012217868FFF7D2FEFC
S315080019000346BB6072221D217868FFF71BFFBB6880
S31508001910DBB21A4612217868FFF714FFBB6803F09A
S315080019204003002B1DD0BB6803F02003002B18D101
S3150800193013217868FFF7B6FE0346FB601021786826
S31508001940FFF7B0FE03461A460D217868FFF7FAFE40
S31508001950812201217868FFF7F5FE114B00221A70E3
S3150800196010E001217868FFF79DFE0346862B09D013
S3150800197000220D217868FFF7E5FE862201217868A6
S31508001980FFF7E0FEBB6803F02003002B02D04FF000
S31508001990FF3300E0FB6818461037BD4680BD00BF20
S315080019A0FC01002080B582B000AF7860132178680A
S315080019B0FFF778FE03461A46034B1B78D31ADBB2A9
S315080019C018460837BD4680BDFC01002080B582B0A8
S315080019D000AF78607868FFF7E5FF0346002B01D172
S315080019E000230AE0074B1B780133DAB2054B1A705D
S315080019F000217868FFF756FE034618460837BD46A5
S31508001A0080BD00BFFC01002080B582B000AF7860C1
S31508001A1001217868FFF746FE034603F00303032B0C
S31508001A2001D1012314E0812201217868FFF78AFE9B
S31508001A3072221D217868FFF785FE00220D2178683D
S31508001A40FFF780FE002222217868FFF77BFE00233D
S31508001A5018460837BD4680BD80B586B000AFF86029
S31508001A60B9601346FB712221F868FFF71BFE03468F
S31508001A703B61FA793B691344FF2B03DD3B69DBB213
S31508001A80DB43FB7100237B610BE07B69BA68134477
S31508001A901B781A460021F868FFF754FE7B69013364
S31508001AA07B61FB797A699A42EFDB3B69DAB2FB79AB
S31508001AB01344DBB21A462221F868FFF743FE00BF3B
S31508001AC01837BD4680BD80B584B000AF7860642302
S31508001AD0FB73832201217868FFF734FE0AE0FB7B5B
S31508001AE0013BFB73FB7B002B04D1012001F016F9A7
S31508001AF001230EE012217868FFF7D4FD034603F0B0
S31508001B000803002BEBD0082212217868FFF71AFE8B
S31508001B10002318461037BD4680BD000080B586B044
S31508001B2000AFF860C7E90023D7E900234FF00000AB
S31508001B304FF00001D90441EA5231D004194A4FF056
S31508001B400003FFF7EFFA02460B46C7E90423D7E975
S31508001B5004014FF000024FF00003020C42EA014272
S31508001B600B0CD3B21A460621F868FFF7EBFDD7E946
S31508001B7004014FF000024FF00003020A42EA016234
S31508001B800B0AD3B21A460721F868FFF7DBFD3B7C40
S31508001B901A460821F868FFF7D5FD00BF1837BD4675
S31508001BA080BD00BF0048E80180B584B000AF78600A
S31508001BB00B46FB701D217868FFF774FD0346FB731F
S31508001BC0FB7B03F00F03FB73FB781B015AB297F9F3
S31508001BD00F3013435BB2FB73FB7B1A461D217868F3
S31508001BE0FFF7B0FD00BF1037BD4680BD80B584B095
S31508001BF000AF78600B46FB7009217868FFF752FD45
S31508001C000346FB73FB7B23F00F03FB7397F9033043
S31508001C1003F00F035AB297F90F3013435BB2FB7305
S31508001C20FB7B1A4609217868FFF78CFD00BF103741
S31508001C30BD4680BD80B584B000AF78600B46FB70AA
S31508001C40FB78062B01D80723FB70FB780C2B01D9F0
S31508001C500C23FB701E217868FFF724FD0346FB73EF
S31508001C60FB7B03F00F03FB73FB781B015AB297F952
S31508001C700F3013435BB2FB73FB7B1A461E21786851
S31508001C80FFF760FD00BF1037BD4680BD80B584B044
S31508001C9000AF78600B46FB70FB78002B01D101235F
S31508001CA0FB70FB78042B01D90423FB70012001F09B
S31508001CB035F81D217868FFF7F5FC0346FB7301200C
S31508001CC001F02CF8FB7B23F00E03FB73012001F0D7
S31508001CD025F8FB785B005AB297F90F3013435BB2CD
S31508001CE0FB73012001F01AF8FB7B1A461D21786860
S31508001CF0FFF728FD012001F011F800BF1037BD4697
S31508001D0080BD000080B582B000AF7860391D4FF6FF
S31508001D10FF730122034803F0C4F87B6818460837A6
S31508001D20BD4680BD6C02002090B583B000AF4C4B19
S31508001D304C4ADA604A4B01229A60494B4A4A5A6130
S31508001D40474B10221A61464B464A5A60444B0222B8
S31508001D501A60434B454A9A61454B414A1A60444BBF
S31508001D6000221A71424B07225A71414BFF229A717F
S31508001D703F4B0722DA713E4B01221A723D493E4813
S31508001D8004F0C6F93C48FEF7EDF903469AB24FF45B
S31508001D907A733949394803F084F812E038493648E5
S31508001DA004F0B6F93448FEF7DDF903469AB24FF463
S31508001DB07A733149314803F074F84FF47A7000F0B9
S31508001DC0ADFF2B48FFF70CFD0346002BE6D12D4946
S31508001DD0294804F09DF92848FEF7C4F903469AB243
S31508001DE04FF47A732449254803F05BF80023FB7106
S31508001DF02CE01F48FFF77AFD0346FB71FB79002BA1
S31508001E0024D00023BB710AE0BB795A1CBA711C4660
S31508001E101748FFF7DBFD03461A461B4B1A551448AD
S31508001E20FFF7C0FD0346002BEED1BB79164A002109
S31508001E30D1541549154804F06BF915491348FEF7AE
S31508001E4087F90346002B05D00023FB71FB79002B8D
S31508001E50CFD000E000BF00BF0C37BD4690BD00BF25
S31508001E60F4030020000C0140000801401402002081
S31508001E701004002008A20008B40200206C0200200A
S31508001E8024A2000834A20008F4020020300300202F
S31508001E9054A2000880B582B000AF78600948FFF701
S31508001EA0B3FD7868FEF75EF90346DBB21A46796831
S31508001EB00448FFF7D1FD0348FFF705FE00BF0837C2
S31508001EC0BD4680BD1004002080B588B004AFF86018
S31508001ED0B9607A603B603B6A0393FB690293BB690E
S31508001EE001933B6800937B68BA680749F86804F071
S31508001EF02FF90346062B01D1012300E000231846DB
S31508001F001037BD4680BD00BF5CA2000890B587B0FB
S31508001F1004AF0023FB7100F0F7FE03462A4A13605C
S31508001F204AE02A48FFF7E2FC0346FB71FB79002BDF
S31508001F3037D00023BB710AE0BB795A1CBA711C461C
S31508001F402248FFF743FD03461A46214B1A551F48F8
S31508001F50FFF728FD0346002BEED1BB791C4A00216A
S31508001F60D1541B491B4804F0D3F81B4B02931B4B57
S31508001F7001931B4B00931B4B1B4A1C491548FFF743
S31508001F80A3FF0346002B0AD0194B1A68174B1B6888
S31508001F909A4201D1012313E00023FB7101E00023DB
S31508001FA0FB7100F0B1FE0246074B1B68D31AB3F566
S31508001FB0967F01D3002303E0FB79002BB1D00123E0
S31508001FC018460C37BD4690BDD403002010040020E7
S31508001FD0F402002030030020E8030020E403002078
S31508001FE0E0030020DC030020CC030020C803002007
S31508001FF00000002080B588B000AF7860396007F12E
S315080020000C003B680D4A102104F04EF807F10C034A
S315080020101846FEF7A7F8024607F10C031946786832
S3150800202004F028F9F861FB69002B01D1012300E0CF
S31508002030002318462037BD4680BD00BF70A20008A1
S3150800204090B583B000AF0023FB7100F05DFE3860E9
S315080020500023BB713C220021264804F0E8F840E042
S3150800206000F052FE02463B68D31A42F227329342E8
S3150800207003D9214B01221A6036E02048FFF736FCC7
S315080020800346FB71FB79002B2BD00023BB710AE0BA
S31508002090BB795A1CBA711C461848FFF797FC0346C9
S315080020A01A46144B1A551548FFF77CFC0346002BB5
S315080020B002D0BB793A2BEBD9BB790E4A0021D15411
S315080020C00C490F4804F024F80E4B1B6819460C48B7
S315080020D0FFF790FF0346002B01D0012305E00023FC
S315080020E0FB71FB79002BBBD0012318460C37BD4684
S315080020F090BD00BFF4020020D00300201004002089
S31508002100300300200000002080B582B000AF786060
S315080021100948FFF779FC7868FEF724F80346DBB22E
S315080021201A4679680448FFF797FC0348FFF7CBFC83
S3150800213000BF0837BD4680BD1004002090B583B0A7
S3150800214000AF0023FB7100F0DFFD0346294A136048
S3150800215048E000F0D9FD0246264B1B68D31AB3F5B2
S31508002160C87F01D3002341E02348FFF7BFFB03469E
S31508002170FB71FB79002B35D00023BB710AE0BB79D4
S315080021805A1CBA711C461C48FFF720FC03461A461F
S315080021901A4B1A551848FFF705FC0346002BEED1D3
S315080021A0BB79164A0021D1541449154803F0B0FFEB
S315080021B0144B1B681A461449104803F0A9FF0F4927
S315080021C00F4804F03DF80346002B09D100F09CFDAA
S315080021D002460E4B1B68D31A0C4A1360012305E00E
S315080021E00023FB71FB79002BB3D0012318460C376B
S315080021F0BD4690BDD403002010040020F402002040
S31508002200300300200000002078A20008D803002030
S31508002210F0B587B004AF00F01FFD00F08BF900F0B1
S315080022205FFA00F0E1F900F0FBF900F02FFA01225D
S315080022304FF400616D4801F0FAF801224FF480610D
S315080022406A4801F0F4F801224FF40071674801F07A
S31508002250EEF8FFF731F966496648FFF757F9664B16
S315080022601E68644B1B6819461846FEF78DFC034624
S315080022701846FEF7E3F804460D465D4B1B681846FC
S31508002280FEF7DCF802460B46CDE90223CDE9004508
S3150800229032465A495A4803F03BFF564B1B68594980
S315080022A01846FEF717FF0346002B09D0514B1B684B
S315080022B019461846FEF768FC03461A464D4B1A603F
S315080022C04C4B1B6850491846FEF722FF0346002B65
S315080022D009D0484B1B684D491846FEF711FE0346C0
S315080022E01A46444B1A60424B1B6849491846FEF782
S315080022F0F1FE0346002B09D03D4B1B6819461846CC
S31508002300FEF742FC03461A46394B1A60384B1B68DF
S315080023103D491846FEF7FCFE0346002B09D0354B0F
S315080023201B683A491846FEF7EBFD03461A46304B3A
S315080023301A60314B1E68304B5B681846FEF77EF80C
S3150800234004460D462C4B9B681846FEF777F802465E
S315080023500B46CDE90223CDE9004532462D492E48E4
S3150800236003F0D6FE2D4B00221A6000237B60002363
S315080023703B60FFF7D9FC322000F0D0FC2648FFF777
S3150800238089FD10E07B68042B09DC2348FFF782FDF2
S315080023907B6801337B60642000F0C0FC03E01F4BC0
S315080023A001221A6004E0FFF7B1FD0346002BE9D0CD
S315080023B01A4B1B68002B40F0A680FFF741FE174B0F
S315080023C01B68002B40F0A1800D48FFF79DFE27E013
S315080023D03B68042B06DC0A48FFF796FE3B68013388
S315080023E03B601DE00D4B01221A601EE0000801400B
S315080023F0F0030020EC0300200000002080A2000863
S31508002400800300200000A04100007A440000C84272
S315080024100000204290A20008A8030020D003002054
S31508002420FFF78CFE0346002BD2D041F6583000F059
S3150800243075FC37493748FFF769F8364B1B68364944
S315080024401846FEF747FE0346002B09D0314B1B689A
S3150800245019461846FEF798FB03461A462D4B1A608E
S315080024602C4B1B682D491846FEF752FE0346002BD7
S3150800247009D0284B1B682A491846FEF741FD034632
S315080024801A46244B1A60224B1B6826491846FEF743
S3150800249021FE0346002B09D01D4B1B68194618461A
S315080024A0FEF772FB03461A46194B1A60184B1B684F
S315080024B01A491846FEF72CFE0346002B09D0154B81
S315080024C01B6817491846FEF71BFD03461A46104BAC
S315080024D01A60154B1E680F4B1B681846FDF7AEFFB2
S315080024E004460D460A4B1B681846FDF7A7FF024629
S315080024F00B46CDE90223CDE9004532460B490C4887
S3150800250003F006FE2EE700BF2CE700BF2AE700BF50
S31508002510F0030020EC0300200000A04100007A44EC
S315080025200000C842000020420000002080A20008E7
S315080025308003002080B594B000AF07F12803282255
S315080025400021184603F073FE07F1140300221A60EF
S315080025505A609A60DA601A613B1D00221A605A6056
S315080025609A60DA600A23BB620123BB631023FB630C
S3150800257001233B6402237B640023BB644FF4C0132E
S31508002580FB6407F12803184600F098FF0346002B62
S3150800259001D000F029F90F237B610223BB610023D8
S315080025A0FB614FF480633B6200237B6207F11403EF
S315080025B00121184601F004FA0346002B01D000F069
S315080025C013F901237B604FF40073BB603B1D18466B
S315080025D001F084FB0346002B01D000F005F900BF8B
S315080025E05037BD4680BD000080B500AF0A4B0B4A88
S315080025F01A60094B4FF0FF325A60074B4FF480724E
S315080026009A60054801F0D6FC0346002B01D000F07D
S31508002610EBF800BF80BD00BF000200200028004084
S3150800262080B500AF174B184A1A60164B4FF48272E2
S315080026305A60144B00229A60124B0022DA60114B42
S3150800264000221A610F4B00225A610E4B4FF400729A
S315080026509A610C4B1022DA610A4B00221A62094B66
S3150800266000225A62074B00229A62064B0A22DA6255
S31508002670044801F024FE0346002B01D000F0B4F80C
S3150800268000BF80BD140200200030014080B500AFB5
S31508002690114B124A1A60104B4FF4E1325A600E4B36
S315080026A000229A600C4B0022DA600B4B00221A615A
S315080026B0094B0C225A61084B00229A61064B0022EC
S315080026C0DA61054802F09DFB0346002B01D000F0B5
S315080026D08BF800BF80BD00BF6C0200200048004098
S315080026E080B588B000AF07F1100300221A605A605F
S315080026F09A60DA60384B9B69374A43F02003936146
S31508002700354B9B6903F02003FB60FB68324B9B69E2
S31508002710314A43F0040393612F4B9B6903F004038A
S31508002720BB60BB682C4B9B692B4A43F0080393613B
S31508002730294B9B6903F008037B607B68002240F6FF
S315080027401441264800F073FE00220221244800F0B6
S315080027506EFE40F614433B6101237B610023BB6197
S315080027600223FB6107F1100319461C4800F008FC18
S3150800277001233B611B4B7B610023BB6107F11003FF
S315080027801946174800F0FCFB02233B6101237B61D5
S315080027900023BB610223FB6107F1100319461048A9
S315080027A000F0EEFB4FF400733B610E4B7B61002398
S315080027B0BB6107F110031946084800F0E1FB002247
S315080027C00021062000F0A5FB062000F0BEFB00BF96
S315080027D02037BD4680BD00BF0010024000080140FA
S315080027E0000C01400000111080B400AF72B600BFA3
S315080027F000BFFDE780B485B000AF154B9B69144A4E
S3150800280043F001039361124B9B6903F00103BB601C
S31508002810BB680F4BDB690E4A43F08053D3610C4B00
S31508002820DB6903F080537B607B680A4B5B68FB605F
S31508002830FB6823F0E063FB60FB6843F00073FB6012
S31508002840044AFB68536000BF1437BD4680BC704716
S31508002850001002400000014080B584B000AF7860E7
S315080028607B681B68134A934220D100F01BFE124B6B
S31508002870DB69114A43F00063D3610F4BDB6903F050
S315080028800063FB60FB680D4B01221A6000220021E1
S31508002890032000F03EFB032000F057FB0022002136
S315080028A0292000F036FB292000F04FFB00BF103727
S315080028B0BD4680BD00280040001002403C0442424C
S315080028C080B588B000AF786007F1100300221A605F
S315080028D05A609A60DA607B681B681B4A93422FD15C
S315080028E01A4B9B69194A43F480539361174B9B69AA
S315080028F003F48053FB60FB68144B9B69134A43F04F
S3150800290004039361114B9B6903F00403BB60BB6826
S31508002910A0233B6102237B610323FB6107F11003BC
S3150800292019460B4800F02CFB40233B6100237B61D2
S315080029300023BB6107F110031946054800F020FB88
S3150800294000BF2037BD4680BD003001400010024060
S315080029500008014080B588B000AF786007F1100321
S3150800296000221A605A609A60DA607B681B681C4A03
S31508002970934231D11B4BDB691A4A43F48023D36156
S31508002980184BDB6903F48023FB60FB68154B9B69D6
S31508002990144A43F008039361124B9B6903F008033A
S315080029A0BB60BB684FF480633B6102237B610323F2
S315080029B0FB6107F1100319460B4800F0E1FA4FF4E2
S315080029C000633B6100237B610023BB6107F11003B1
S315080029D01946054800F0D4FA00BF2037BD4680BD29
S315080029E00048004000100240000C014080B400AFCF
S315080029F000BFFDE780B400AF00BFFDE780B400AFBD
S31508002A0000BFFDE780B400AF00BFFDE780B400AFAC
S31508002A1000BFFDE780B400AF00BFBD4680BC70476D
S31508002A2080B400AF00BFBD4680BC704780B400AF1D
S31508002A3000BFBD4680BC704780B500AF00F052F9B4
S31508002A4000BF80BD80B500AF024801F0EFFB00BFB4
S31508002A5080BD00BF0002002080B500AF012000F055
S31508002A60FFFC00BF80BD000080B500AF024801F042
S31508002A702DFB00BF80BD00BF0002002080B400AF60
S31508002A8001231846BD4680BC704780B582B000AFAA
S31508002A907860396003F04AFC034616221A604FF044
S31508002AA0FF3318460837BD4680BD80B582B000AFF3
S31508002AB078604FF0FF317868FFF7E7FF00BFFDE762
S31508002AC080B586B000AFF860B9607A6000237B6194
S31508002AD00AE0AFF300800146BB685A1CBA60CAB266
S31508002AE01A707B6901337B617A697B689A42F0DBED
S31508002AF07B6818461837BD4680BD80B586B000AFDE
S31508002B00F860B9607A6000237B6109E0BB685A1CEB
S31508002B10BA601B781846FFF7F5F87B6901337B61C5
S31508002B207A697B689A42F1DB7B6818461837BD4696
S31508002B3080BD80B483B000AF78604FF0FF3318468D
S31508002B400C37BD4680BC704780B483B000AF786050
S31508002B5039603B684FF400525A60002318460C3718
S31508002B60BD4680BC704780B483B000AF786001234F
S31508002B7018460C37BD4680BC704780B485B000AF98
S31508002B80F860B9607A60002318461437BD4680BCE1
S31508002B907047000080B586B000AF7860144A154BC0
S31508002BA0D31A7B617B693B61134B1B68002B02D1EF
S31508002BB0114B124A1A60104B1A687B6813443A691B
S31508002BC09A4207D203F0B2FB03460C221A604FF072
S31508002BD0FF3309E0084B1B68FB60074B1A687B68E4
S31508002BE01344054A1360FB6818461837BD4680BD6E
S31508002BF000500020000400001C040020700500207E
S31508002C0080B400AF00BFBD4680BC7047FFF7F8FF31
S31508002C100B480C490C4A002302E0D458C45004332C
S31508002C20C4188C42F9D3094A094C002301E0136001
S31508002C300432A242FBD303F07FFBFFF7E9FA7047A1
S31508002C4000000020E001002074A70008E001002031
S31508002C5070050020FEE7000080B500AF084B1B6832
S31508002C60074A43F010031360032000F047F90F20CA
S31508002C7000F008F8FFF7BEFD0023184680BD00BF28
S31508002C800020024080B582B000AF7860124B1A6807
S31508002C90124B1B7819464FF47A73B3FBF1F3B2FB68
S31508002CA0F3F3184600F05FF90346002B01D0012321
S31508002CB00EE07B680F2B0AD8002279684FF0FF30A8
S31508002CC000F027F9064A7B681360002300E0012319
S31508002CD018460837BD4680BD0C00002014000020A9
S31508002CE01000002080B400AF054B1B781A46054B30
S31508002CF01B681344034A136000BFBD4680BC704777
S31508002D00140000202004002080B400AF024B1B688A
S31508002D101846BD4680BC70472004002080B584B0A4
S31508002D2000AF7860FFF7F0FFB8607B68FB60FB6870
S31508002D30B3F1FF3F05D00A4B1B781A46FB681344CC
S31508002D40FB6000BFFFF7E0FF0246BB68D31AFA68CC
S31508002D509A42F7D800BF00BF1037BD4680BD00BFF6
S31508002D601400002080B485B000AF78607B6803F05B
S31508002D700703FB600C4BDB68BB60BA684FF6FF03C2
S31508002D801340BB60FB681A02BB68134343F0BF637A
S31508002D9043F40033BB60044ABB68D36000BF1437F2
S31508002DA0BD4680BC704700BF00ED00E080B400AFB0
S31508002DB0044BDB681B0A03F007031846BD4680BCB4
S31508002DC0704700BF00ED00E080B483B000AF034653
S31508002DD0FB7197F90730002B0BDBFB7903F01F0219
S31508002DE0064997F907305B09012000FA02F241F813
S31508002DF0232000BF0C37BD4680BC704700E100E0C9
S31508002E0080B483B000AF03463960FB7197F9073089
S31508002E10002B0ADB3B68DAB20C4997F90730120136
S31508002E20D2B20B4483F800230AE03B68DAB20849B9
S31508002E30FB7903F00F03043B1201D2B20B441A7656
S31508002E4000BF0C37BD4680BC704700BF00E100E0FC
S31508002E5000ED00E080B489B000AFF860B9607A6030
S31508002E60FB6803F00703FB61FB69C3F10703042B47
S31508002E7028BF0423BB61FB690433062B02D9FB690F
S31508002E80033B00E000237B614FF0FF32BB6902FA87
S31508002E9003F3DA43BB681A407B699A404FF0FF3167
S31508002EA07B6901FA03F3D9437B680B401343184641
S31508002EB02437BD4680BC704780B582B000AF7860C5
S31508002EC07B68013BB3F1807F01D301230FE00A4AF7
S31508002ED07B68013B53600F214FF0FF30FFF790FFEF
S31508002EE0054B00229A60044B07221A6000231846F5
S31508002EF00837BD4680BD00BF10E000E080B582B04F
S31508002F0000AF78607868FFF72DFF00BF0837BD4629
S31508002F1080BD80B586B000AF0346B9607A60FB73A2
S31508002F2000237B61FFF742FF78617A68B9687869A0
S31508002F30FFF790FF024697F90F3011461846FFF73C
S31508002F405FFF00BF1837BD4680BD80B582B000AFB1
S31508002F500346FB7197F907301846FFF735FF00BFA0
S31508002F600837BD4680BD80B582B000AF7860786806
S31508002F70FFF7A2FF034618460837BD4680BD000086
S31508002F8080B48BB000AF7860396000237B62002381
S31508002F903B6269E101227B6A02FA03F3FB613B6843
S31508002FA01B68FA691340BB61BA69FB699A4240F02B
S31508002FB058813B685B689A4A93425ED0984A934226
S31508002FC075D8984A934258D0964A93426FD8964AEB
S31508002FD0934252D0944A934269D8944A93424CD029
S31508002FE0924A934263D8924A934246D0904A934271
S31508002FF05DD8122B2AD8122B59D801A252F823F0E1
S315080030007B3000085530000867300008A9300008F2
S31508003010AF300008AF300008AF300008AF30000806
S31508003020AF300008AF300008AF300008AF300008F6
S31508003030AF300008AF300008AF300008AF300008E6
S31508003040AF3000085D30000871300008794A9342B5
S3150800305013D02CE03B68DB683B6229E03B68DB6801
S3150800306004333B6224E03B68DB6808333B621FE0BD
S315080030703B68DB680C333B621AE03B689B68002BB5
S3150800308002D104233B6213E03B689B68012B05D100
S3150800309008233B627B68FA691A6109E008233B62E8
S315080030A07B68FA695A6103E000233B6200E000BFCF
S315080030B0BB69FF2B01D87B6801E07B6804337B6121
S315080030C0BB69FF2B02D87B6A9B0002E07B6A083B40
S315080030D09B003B617B691A680F213B6901FA03F380
S315080030E0DB431A40396A3B6901FA03F31A437B69E1
S315080030F01A603B685B6803F08053002B00F0B180D0
S315080031004D4B9B694C4A43F0010393614A4B9B69BB
S3150800311003F00103BB60BB68484A7B6A9B0802331D
S3150800312052F82330FB607B6A03F003039B000F22EF
S3150800313002FA03F3DB43FA681340FB607B68404AF4
S31508003140934213D07B683F4A93420DD07B683E4A30
S31508003150934207D07B683D4A934201D1032306E098
S31508003160042304E0022302E0012300E000237A6A34
S3150800317002F0030292009340FA681343FB602F495A
S315080031807B6A9B080233FA6841F823203B685B6830
S3150800319003F48013002B06D02D4B9A682C49BB6983
S315080031A013438B6006E02A4B9A68BB69DB432849C0
S315080031B013408B603B685B6803F40013002B06D052
S315080031C0234BDA682249BB691343CB6006E0204BE0
S315080031D0DA68BB69DB431E491340CB603B685B6812
S315080031E003F40033002B06D0194B5A681849BB69FB
S315080031F013434B6006E0164B5A68BB69DB43144918
S3150800320013404B603B685B6803F48033002B21D086
S315080032100F4B1A680E49BB6913430B6021E000BFC8
S3150800322000003210000031100000221000002110AA
S3150800323000001210000011100010024000000140AA
S3150800324000080140000C0140001001400014014034
S31508003250000401400B4B1A68BB69DB43094913405C
S315080032600B607B6A01337B623B681A687B6A22FAC9
S3150800327003F3002B7FF48EAE00BF00BF2C37BD468C
S3150800328080BC70470004014080B489B000AF786004
S3150800329039600023FB619AE00122FB6902FA03F315
S315080032A03A681340BB61BB69002B00F08D804E4A1B
S315080032B0FB699B08023352F823307B61FB6903F0F4
S315080032C003039B000F2202FA03F37A6913407B611A
S315080032D07B68464A934213D07B68454A93420DD091
S315080032E07B68444A934207D07B68434A934201D19C
S315080032F0032306E0042304E0022302E0012300E09E
S315080033000023FA6902F00302920093407A699A420E
S3150800331032D13A4B1A68BB69DB43384913400B6014
S31508003320364B5A68BB69DB43344913404B60334B11
S31508003330DA68BB69DB4331491340CB602F4B9A6887
S31508003340BB69DB432D4913408B60FB6903F003031C
S315080033509B000F2202FA03F37B61234AFB699B0851
S31508003360023352F823107B69DA431F48FB699B082E
S315080033700A40023340F82320BB69FF2B01D87B683B
S3150800338001E07B6804333B61BB69FF2B02D8FB690C
S315080033909B0002E0FB69083B9B00FB603B691A68DF
S315080033A00F21FB6801FA03F3DB431A400421FB688B
S315080033B001FA03F31A433B691A607B68DA68BB694A
S315080033C0DB431A407B68DA60FB690133FB613A68C4
S315080033D0FB6922FA03F3002B7FF45EAF00BF00BF40
S315080033E02437BD4680BC70470000014000080140F4
S315080033F0000C014000100140001401400004014087
S3150800340080B485B000AF78600B467B807B689A688D
S315080034107B881340002B02D00123FB7301E00023B5
S31508003420FB73FB7B18461437BD4680BC704780B4D7
S3150800343083B000AF78600B467B8013467B707B7841
S31508003440002B03D07A887B681A6103E07B881A040C
S315080034507B681A6100BF0C37BD4680BC7047000008
S3150800346080B582B000AF0346FB80084B5A69FB88DB
S315080034701340002B06D0054AFB885361FB88184683
S3150800348000F006F800BF0837BD4680BD00040140BD
S3150800349080B483B000AF0346FB8000BF0C37BD463F
S315080034A080BC704780B400AF034B01221A6000BF8E
S315080034B0BD4680BC704700BF20000E4280B586B06E
S315080034C000AF78607B68002B01D1012372E27B682C
S315080034D01B6803F00103002B00F08780924B5B68A2
S315080034E003F00C03042B0CD08F4B5B6803F00C0322
S315080034F0082B12D18C4B5B6803F48033B3F5803FFD
S315080035000BD1894B1B6803F40033002B6CD07B6806
S315080035105B68002B68D101234CE27B685B68B3F5D6
S31508003520803F06D1804B1B687F4A43F48033136083
S315080035302EE07B685B68002B0CD17B4B1B687A4AB4
S3150800354023F480331360784B1B68774A23F480236F
S3150800355013601DE07B685B68B3F5A02F0CD1724B36
S315080035601B68714A43F4802313606F4B1B686E4ACD
S3150800357043F4803313600BE06B4B1B686A4A23F4F1
S3150800358080331360684B1B68674A23F480231360F3
S315080035907B685B68002B13D0FFF7B6FB386108E041
S315080035A0FFF7B2FB02463B69D31A642B01D9032302
S315080035B000E25D4B1B6803F40033002BF0D014E0E7
S315080035C0FFF7A2FB386108E0FFF79EFB02463B695E
S315080035D0D31A642B01D90323ECE1534B1B6803F47C
S315080035E00033002BF0D100E000BF7B681B6803F0B6
S315080035F00203002B63D04C4B5B6803F00C03002BD3
S315080036000BD0494B5B6803F00C03082B1CD1464BC7
S315080036105B6803F48033002B16D1434B1B6803F019
S315080036200203002B05D07B681B69012B01D00123FF
S31508003630C0E13D4B1B6823F0F8027B685B69DB0041
S31508003640394913430B603AE07B681B69002B20D08D
S31508003650364B01221A60FFF757FB386108E0FFF77F
S3150800366053FB02463B69D31A022B01D90323A1E176
S315080036702D4B1B6803F00203002BF0D02A4B1B6866
S3150800368023F0F8027B685B69DB00274913430B606C
S3150800369015E0264B00221A60FFF736FB386108E072
S315080036A0FFF732FB02463B69D31A022B01D90323E3
S315080036B080E11D4B1B6803F00203002BF0D17B68E9
S315080036C01B6803F00803002B3AD07B689B69002B24
S315080036D019D0174B01221A60FFF716FB386108E06C
S315080036E0FFF712FB02463B69D31A022B01D90323C3
S315080036F060E10D4B5B6A03F00203002BF0D001205A
S3150800370000F0CEFA1CE00A4B00221A60FFF7FCFA1A
S3150800371038610FE0FFF7F8FA02463B69D31A022B25
S3150800372008D9032346E100BF0010024000004242C8
S3150800373080044242924B5B6A03F00203002BE9D1F4
S315080037407B681B6803F00403002B00F0A6800023A7
S31508003750FB758B4BDB6903F08053002B0DD1884B2F
S31508003760DB69874A43F08053D361854BDB6903F0F5
S315080037708053BB60BB680123FB75824B1B6803F44F
S315080037808073002B18D17F4B1B687E4A43F48073E5
S315080037901360FFF7B9FA386108E0FFF7B5FA024691
S315080037A03B69D31A642B01D9032303E1754B1B68C4
S315080037B003F48073002BF0D07B68DB68012B06D1FD
S315080037C06F4B1B6A6E4A43F0010313622DE07B6858
S315080037D0DB68002B0CD16A4B1B6A694A23F001038C
S315080037E01362674B1B6A664A23F0040313621CE0E4
S315080037F07B68DB68052B0CD1614B1B6A604A43F07A
S31508003800040313625E4B1B6A5D4A43F001031362AD
S315080038100BE05B4B1B6A5A4A23F001031362584BB1
S315080038201B6A574A23F0040313627B68DB68002B84
S3150800383015D0FFF769FA38610AE0FFF765FA02461C
S315080038403B69D31A41F28832934201D90323B1E086
S315080038504B4B1B6A03F00203002BEED014E0FFF774
S3150800386053FA38610AE0FFF74FFA02463B69D31A62
S3150800387041F28832934201D903239BE0404B1B6AED
S3150800388003F00203002BEED1FB7D012B05D13C4B47
S31508003890DB693B4A23F08053D3617B68DB69002BE5
S315080038A000F08780364B5B6803F00C03082B61D069
S315080038B07B68DB69022B46D1334B00221A60FFF77F
S315080038C023FA386108E0FFF71FFA02463B69D31A64
S315080038D0022B01D903236DE0294B1B6803F0007303
S315080038E0002BF0D17B681B6AB3F5803F08D1244BC7
S315080038F05B6823F400327B689B68214913434B605D
S315080039001F4B5B6823F474127B68196A7B685B6AD1
S315080039100B431B4913434B601B4B01221A60FFF7ED
S31508003920F3F9386108E0FFF7EFF902463B69D31A65
S31508003930022B01D903233DE0114B1B6803F00073EA
S31508003940002BF0D035E0104B00221A60FFF7DCF9A7
S31508003950386108E0FFF7D8F902463B69D31A022B0B
S3150800396001D9032326E0064B1B6803F00073002BDE
S31508003970F0D11EE07B68DB69012B07D1012319E032
S315080039800010024000700040600042420B4B5B682A
S31508003990FB60FB6803F480327B681B6A9A4206D197
S315080039A0FB6803F470127B685B6A9A4201D00123B4
S315080039B000E0002318461837BD4680BD00100240B7
S315080039C080B584B000AF786039607B68002B01D180
S315080039D00123D0E06A4B1B6803F007033A689A4252
S315080039E010D9674B1B6823F0070265493B681343E8
S315080039F00B60634B1B6803F007033A689A4201D0D1
S31508003A000123B8E07B681B6803F00203002B20D073
S31508003A107B681B6803F00403002B05D0594B5B68D1
S31508003A20584A43F4E06353607B681B6803F0080355
S31508003A30002B05D0534B5B68524A43F460535360DE
S31508003A40504B5B6823F0F0027B689B684D49134333
S31508003A504B607B681B6803F00103002B40D07B6832
S31508003A605B68012B07D1474B1B6803F40033002B17
S31508003A7015D101237FE07B685B68022B07D1414B98
S31508003A801B6803F00073002B09D1012373E03D4B3B
S31508003A901B6803F00203002B01D101236BE0394BAD
S31508003AA05B6823F003027B685B68364913434B6007
S31508003AB0FFF72AF9F8600AE0FFF726F90246FB68DD
S31508003AC0D31A41F28832934201D9032353E02D4B8E
S31508003AD05B6803F00C027B685B689B009A42EBD13B
S31508003AE0274B1B6803F007033A689A4210D2244B07
S31508003AF01B6823F0070222493B6813430B60204BDF
S31508003B001B6803F007033A689A4201D0012332E0A2
S31508003B107B681B6803F00403002B08D0194B5B680D
S31508003B2023F4E0627B68DB68164913434B607B68C5
S31508003B301B6803F00803002B09D0124B5B6823F4BB
S31508003B4060527B681B69DB000E4913434B6000F02B
S31508003B5021F802460B4B5B681B0903F00F030A4961
S31508003B60CB5C22FA03F3094A1360094B1B68184613
S31508003B70FFF788F8002318461037BD4680BD00BFFA
S31508003B800020024000100240DCA200080C000020C1
S31508003B901000002080B487B000AF0023FB6000232C
S31508003BA0BB6000237B6100237B6000233B611E4BC7
S31508003BB05B68FB60FB6803F00C03042B02D0082B40
S31508003BC003D027E0194B3B6127E0FB689B0C03F009
S31508003BD00F03174AD35C7B60FB6803F48033002B22
S31508003BE010D0114B5B685B0C03F00103114AD35CE0
S31508003BF0BB607B680D4A03FB02F2BB68B2FBF3F3BA
S31508003C007B6104E07B680C4A02FB03F37B617B69FA
S31508003C103B6102E0054B3B6100BF3B6918461C3718
S31508003C20BD4680BC704700BF0010024000127A00F3
S31508003C30F4A2000804A3000800093D0080B400AF00
S31508003C40024B1B681846BD4680BC70470C00002016
S31508003C5080B500AFFFF7F2FF0246054B5B681B0A0B
S31508003C6003F007030349CB5C22FA03F3184680BD29
S31508003C7000100240ECA2000880B500AFFFF7DEFF97
S31508003C800246054B5B68DB0A03F007030349CB5C76
S31508003C9022FA03F3184680BD00100240ECA2000881
S31508003CA080B485B000AF78600A4B1B680A4AA2FB4D
S31508003CB003235B0A7A6802FB03F3FB6000BFFB6819
S31508003CC05A1EFA60002BF9D100BF00BF1437BD4653
S31508003CD080BC70470C000020D34D621080B586B0BA
S31508003CE000AF786000233B610023FB607B681B689C
S31508003CF003F00103002B7DD00023FB754F4BDB69D6
S31508003D0003F08053002B0DD14C4BDB694B4A43F033
S31508003D108053D361494BDB6903F08053BB60BB68B2
S31508003D200123FB75464B1B6803F48073002B18D1DF
S31508003D30434B1B68424A43F480731360FEF7E4FF63
S31508003D40386108E0FEF7E0FF02463B69D31A642BA8
S31508003D5001D903236DE03A4B1B6803F48073002BEB
S31508003D60F0D0364B1B6A03F44073FB60FB68002BEC
S31508003D702ED07B685B6803F44073FA689A4227D0B2
S31508003D802E4B1B6A23F44073FB602E4B01221A60EC
S31508003D902C4B00221A60294AFB681362FB6803F061
S31508003DA00103002B14D0FEF7AFFF38610AE0FEF7D7
S31508003DB0ABFF02463B69D31A41F28832934201D9D6
S31508003DC0032336E01D4B1B6A03F00203002BEED0DB
S31508003DD01A4B1B6A23F440727B685B6817491343C6
S31508003DE00B62FB7D012B05D1144BDB69134A23F0CB
S31508003DF08053D3617B681B6803F00203002B08D04D
S31508003E000E4B5B6823F440427B689B680B4913435F
S31508003E104B607B681B6803F01003002B08D0074B28
S31508003E205B6823F480027B68DB68044913434B60B4
S31508003E30002318461837BD4680BD00BF0010024053
S31508003E40007000404004424280B588B000AF7860F8
S31508003E5000237B610023FB6100233B610023FB6099
S31508003E600023BB617B68102B0AD07B68102B00F2FD
S31508003E708A807B68012B45D07B68022B75D082E04F
S31508003E80464B5B68FB60454B1B6803F08073002B51
S31508003E907BD0FB689B0C03F00F03414AD35C3B6164
S31508003EA0FB6803F48033002B15D03C4B5B685B0C36
S31508003EB003F001033B4AD35C7B61FB6803F4803360
S31508003EC0002B0DD0384A7B69B2FBF3F23B6902FB43
S31508003ED003F3FB6104E03B69344A02FB03F3FB612D
S31508003EE02E4B5B6803F48003B3F5800F02D1FB69A0
S31508003EF0BB614AE0FB695B002D4AA2FB03235B0812
S31508003F00BB6142E0254B1B6AFB60FB6803F4407308
S31508003F10B3F5807F08D1FB6803F00203002B03D0BA
S31508003F204FF40043BB611FE0FB6803F44073B3F52D
S31508003F30007F09D1194B5B6A03F00203002B03D0FB
S31508003F4049F64043BB610FE0FB6803F44073B3F5E1
S31508003F50407F1CD1114B1B6803F40033002B16D08D
S31508003F604FF22443BB6112E011E0FFF785FE0246DB
S31508003F700A4B5B689B0B03F0030301335B00B2FB40
S31508003F80F3F3BB6104E000BF02E000BF00E000BF3E
S31508003F90BB6918462037BD4680BD00BF00100240E9
S31508003FA008A3000818A3000800127A0000093D00BB
S31508003FB0ABAAAAAA80B584B000AF78600023FB60DC
S31508003FC07B68002B01D101237AE07B685B7CDBB23E
S31508003FD0002B05D17B6800221A747868FEF73CFC32
S31508003FE07B6802225A74786800F0A3F80346002B0F
S31508003FF004D07B6804225A74012361E0786800F0D3
S31508004000C5F80346002B04D07B6804225A740123A2
S3150800401056E07B681B685A687B681B6822F00702B3
S315080040205A607B689B68002B05D0274B1B6B264A7A
S3150800403023F001031363244BDB6A23F460727B6865
S315080040409B6821491343CB627B685B68B3F1FF3FEA
S3150800405003D07B685B68FB600EE00120FFF7F4FE87
S31508004060F860FB68002B04D17B6804225A7401238C
S3150800407026E0FB68013BFB60FB681A0C7B681B6843
S3150800408002F00F029A607B681B68FA6892B2DA60DF
S31508004090786800F0A3F80346002B04D07B68042256
S315080040A05A7401230CE07B680022DA737B680122CC
S315080040B05A737B6801229A737B6801225A7400231B
S315080040C018461037BD4680BD006C004080B582B0EA
S315080040D000AF78607B681B681B6803F00203002B3F
S315080040E011D07B681B685B6803F00203002B0AD0BB
S315080040F0786800F015F87B681B685A687B681B6847
S3150800410022F002025A60054B4FF400325A617B686E
S3150800411001225A7400BF0837BD4680BD000401401D
S3150800412080B483B000AF786000BF0C37BD4680BC52
S31508004130704780B584B000AF78600023FB607B6869
S31508004140002B01D101231DE07B681B685A687B6838
S315080041501B6822F008025A60FEF7D6FDF86009E0EF
S31508004160FEF7D2FD0246FB68D31AB3F57A7F01D96A
S31508004170032307E07B681B685B6803F00803002BD2
S31508004180EED0002318461037BD4680BD80B584B0F2
S3150800419000AF78600023FB60FEF7B6FDF86009E023
S315080041A0FEF7B2FD0246FB68D31AB3F57A7F01D94A
S315080041B003230FE07B681B685B6803F02003002B72
S315080041C0EED07B681B685A687B681B6842F0100251
S315080041D05A60002318461037BD4680BD80B584B0A6
S315080041E000AF78600023FB607B681B685A687B68B1
S315080041F01B6822F010025A60FEF786FDF86009E097
S31508004200FEF782FD0246FB68D31AB3F57A7F01D919
S31508004210032307E07B681B685B6803F02003002B19
S31508004220EED0002318461037BD4680BD80B582B053
S3150800423000AF78607B681B681B6803F00103002BDE
S3150800424027D07B681B685B6803F00103002B20D02E
S315080042507B681B685B6803F00403002B0BD0786847
S3150800426000F024F87B681B686FF004025A607B68CC
S3150800427004225A7405E0786800F00FF87B6801227A
S315080042805A747B681B685A687B681B6822F00102AF
S315080042905A6000BF0837BD4680BD80B483B000AF02
S315080042A0786000BF0C37BD4680BC704780B483B0C9
S315080042B000AF786000BF0C37BD4680BC704780B53C
S315080042C082B000AF78607B68002B01D1012376E0CD
S315080042D07B685B6A002B08D17B685B68B3F5827FD5
S315080042E009D07B680022DA6105E07B6800221A6142
S315080042F07B6800225A617B6800229A627B6893F881
S315080043005130DBB2002B06D17B68002283F850209F
S315080043107868FEF7D5FA7B68022283F851207B6815
S315080043201B681A687B681B6822F040021A607B6863
S315080043305B6803F482727B689B6803F404431A4340
S315080043407B68DB6803F400631A437B681B6903F028
S3150800435002031A437B685B6903F001031A437B680F
S315080043609B6903F400731A437B68DB6903F038031F
S315080043701A437B681B6A03F0800342EA03017B68E1
S315080043809B6A03F400527B681B680A431A607B68C1
S315080043909B691A0C7B681B6802F004025A607B68EA
S315080043A01B68DA697B681B6822F40062DA617B683D
S315080043B000225A657B68012283F85120002318469B
S315080043C00837BD4680BD80B588B000AFF860B960D3
S315080043D03B601346FB80FEF797FCF861FB887B83FE
S315080043E0FB6893F85130DBB2012B01D002232AE196
S315080043F0BB68002B02D0FB88002B01D1012322E1E8
S31508004400FB6893F85030012B01D102231BE1FB68AE
S31508004410012283F85020FB68032283F85120FB68A9
S3150800442000225A65FB68BA681A63FB68FA889A8696
S31508004430FB68FA88DA86FB6800229A63FB68002222
S315080044409A87FB680022DA87FB6800225A64FB68B1
S3150800445000221A64FB689B68B3F5004F0FD1FB680E
S315080044601B681A68FB681B6822F040021A60FB6822
S315080044701B681A68FB681B6842F480421A60FB686E
S315080044801B681B6803F04003402B07D0FB681B68BA
S315080044901A68FB681B6842F040021A60FB68DB6812
S315080044A0B3F5006F52D1FB685B68002B02D07B8B9B
S315080044B0012B45D1FB681B6B1A88FB681B68DA6001
S315080044C0FB681B6B9A1CFB681A63FB68DB8E9BB246
S315080044D0013B9AB2FB68DA8632E0FB681B689B6888
S315080044E003F00203022B12D1FB681B6B1A88FB68C8
S315080044F01B68DA60FB681B6B9A1CFB681A63FB680F
S31508004500DB8E9BB2013B9AB2FB68DA8618E0FEF7AF
S31508004510FBFB0246FB69D31A3A689A4203D83B6802
S31508004520B3F1FF3F02D13B68002B09D1FB6801229A
S3150800453083F85120FB68002283F85020032382E089
S31508004540FB68DB8E9BB2002BC7D153E0FB685B6828
S31508004550002B02D07B8B012B47D1FB681A6BFB68BB
S315080045601B680C3312781A70FB681B6B5A1CFB68A5
S315080045701A63FB68DB8E9BB2013B9AB2FB68DA864C
S3150800458033E0FB681B689B6803F00203022B13D118
S31508004590FB681A6BFB681B680C3312781A70FB6889
S315080045A01B6B5A1CFB681A63FB68DB8E9BB2013BCC
S315080045B09AB2FB68DA8618E0FEF7A6FB0246FB69A4
S315080045C0D31A3A689A4203D83B68B3F1FF3F02D13F
S315080045D03B68002B09D1FB68012283F85120FB6850
S315080045E0002283F8502003232DE0FB68DB8E9BB264
S315080045F0002BC6D1FA693968F86800F0D1FB034682
S31508004600002B02D0FB6820225A65FB689B68002BAA
S315080046100AD100237B61FB681B68DB687B61FB684A
S315080046201B689B687B617B69FB68012283F85120C4
S31508004630FB68002283F85020FB685B6D002B01D0D5
S31508004640012300E0002318462037BD4680BD80B50B
S3150800465088B002AFF860B9603B601346FB80FB6820
S3150800466093F85130DBB2012B01D0022304E1FB6839
S315080046705B68B3F5827F12D1FB689B68002B0ED16D
S31508004680FB68042283F85120FA883B680093134696
S31508004690BA68B968F86800F0F3F80346ECE0FEF784
S315080046A033FB7861BB68002B02D0FB88002B01D155
S315080046B00123E1E0FB6893F85030012B01D1022376
S315080046C0DAE0FB68012283F85020FB68042283F8AD
S315080046D05120FB6800225A65FB68BA689A63FB6832
S315080046E0FA889A87FB68FA88DA87FB6800221A63D1
S315080046F0FB6800229A86FB680022DA86FB6800229D
S315080047001A64FB6800225A64FB689B68B3F5004F7D
S315080047100FD1FB681B681A68FB681B6822F0400209
S315080047201A60FB681B681A68FB681B6822F48042DB
S315080047301A60FB681B681B6803F04003402B07D010
S31508004740FB681B681A68FB681B6842F040021A601F
S31508004750FB68DB68002B70D135E0FB681B689B683B
S3150800476003F00103012B15D1FB681B6803F10C024A
S31508004770FB689B6B1278D2B21A70FB689B6B5A1C4B
S31508004780FB689A63FB68DB8F9BB2013B9AB2FB68B6
S31508004790DA8718E0FEF7B8FA02467B69D31A3A6850
S315080047A09A4203D83B68B3F1FF3F02D13B68002B1E
S315080047B009D1FB68012283F85120FB68002283F89F
S315080047C05020032358E0FB68DB8F9BB2002BC4D133
S315080047D038E0FB681B689B6803F00103012B13D1C3
S315080047E0FB681B68DA68FB689B6B92B21A80FB68E9
S315080047F09B6B9A1CFB689A63FB68DB8F9BB2013B39
S315080048009AB2FB68DA8718E0FEF77EFA02467B69F9
S31508004810D31A3A689A4203D83B68B3F1FF3F02D1EC
S315080048203B68002B09D1FB68012283F85120FB68FD
S31508004830002283F8502003231EE0FB68DB8F9BB21F
S31508004840002BC6D17A693968F86800F057FA03462A
S31508004850002B02D0FB6820225A65FB68012283F8E8
S315080048605120FB68002283F85020FB685B6D002B03
S3150800487001D0012300E0002318461837BD4680BD45
S3150800488080B58AB000AFF860B9607A607B80012392
S315080048907B62FEF739FA3862FB6893F85130FB778A
S315080048A0FB685B68BB617B88FB82FB7F012B0CD0B6
S315080048B0BB69B3F5827F06D1FB689B68002B02D1E2
S315080048C0FB7F042B01D002237FE1BB68002B05D0B8
S315080048D07B68002B02D07B88002B01D1012374E171
S315080048E0FB6893F85030012B01D102236DE1FB6878
S315080048F0012283F85020FB6893F85130DBB2042B71
S3150800490003D0FB68052283F85120FB6800225A650C
S31508004910FB687A689A63FB687A88DA87FB687A881C
S315080049209A87FB68BA681A63FB687A88DA86FB682E
S315080049307A889A86FB6800221A64FB6800225A6401
S31508004940FB681B681B6803F04003402B07D0FB6815
S315080049501B681A68FB681B6842F040021A60FB680D
S31508004960DB68B3F5006F7ED1FB685B68002B02D06D
S31508004970FB8A012B6CD1FB681B6B1A88FB681B68CA
S31508004980DA60FB681B6B9A1CFB681A63FB68DB8E94
S315080049909BB2013B9AB2FB68DA8659E0FB681B6852
S315080049A09B6803F00203022B1BD1FB68DB8E9BB2CC
S315080049B0002B16D07B6A012B13D1FB681B6B1A8858
S315080049C0FB681B68DA60FB681B6B9A1CFB681A633A
S315080049D0FB68DB8E9BB2013B9AB2FB68DA86002342
S315080049E07B62FB681B689B6803F00103012B19D1E6
S315080049F0FB68DB8F9BB2002B14D0FB681B68DA6858
S31508004A00FB689B6B92B21A80FB689B6B9A1CFB68CF
S31508004A109A63FB68DB8F9BB2013B9AB2FB68DA8725
S31508004A2001237B62FEF770F902463B6AD31A3A6B9A
S31508004A309A420DD83B6BB3F1FF3F09D0FB680122C0
S31508004A4083F85120FB68002283F850200323BCE03A
S31508004A50FB68DB8E9BB2002BA0D1FB68DB8F9BB279
S31508004A60002B9BD182E0FB685B68002B02D0FB8A97
S31508004A70012B71D1FB681A6BFB681B680C33127823
S31508004A801A70FB681B6B5A1CFB681A63FB68DB8E83
S31508004A909BB2013B9AB2FB68DA865DE0FB681B684D
S31508004AA09B6803F00203022B1CD1FB68DB8E9BB2CA
S31508004AB0002B17D07B6A012B14D1FB681A6BFB6895
S31508004AC01B680C3312781A70FB681B6B5A1CFB6840
S31508004AD01A63FB68DB8E9BB2013B9AB2FB68DA86E7
S31508004AE000237B62FB681B689B6803F00103012BAC
S31508004AF019D1FB68DB8F9BB2002B14D0FB681B68AF
S31508004B00DA68FB689B6BD2B21A70FB689B6B5A1CFF
S31508004B10FB689A63FB68DB8F9BB2013B9AB2FB6822
S31508004B20DA8701237B62FEF7EFF802463B6AD31A5F
S31508004B303A6B9A4203D83B6BB3F1FF3F02D13B6B0A
S31508004B40002B09D1FB68012283F85120FB6800225B
S31508004B5083F85020032338E0FB68DB8E9BB2002BDA
S31508004B609CD1FB68DB8F9BB2002B97D13A6A396BD5
S31508004B70F86800F015F90346002B08D0FB682022D8
S31508004B805A65FB68002283F8502001231DE0FB6864
S31508004B909B68002B0AD100233B61FB681B68DB6816
S31508004BA03B61FB681B689B683B613B69FB680122AC
S31508004BB083F85120FB68002283F85020FB685B6D60
S31508004BC0002B01D0012300E0002318462837BD46F4
S31508004BD080BD80B483B000AF78607B6893F85130AD
S31508004BE0DBB218460C37BD4680BC704780B588B026
S31508004BF000AFF860B9603B601346FB71FEF784F8B6
S31508004C000246BB6A9B1A3A681344FB61FEF77CF8B6
S31508004C10B861394B1B685B011B0DFA6902FB03F38C
S31508004C207B6154E03B68B3F1FF3F50D0FEF76CF868
S31508004C300246BB69D31AFA699A4202D9FB69002B64
S31508004C403DD1FB681B685A68FB681B6822F0E002C6
S31508004C505A60FB685B68B3F5827F11D1FB689B6875
S31508004C60B3F5004F04D0FB689B68B3F5806F07D196
S31508004C70FB681B681A68FB681B6822F040021A600A
S31508004C80FB689B6AB3F5005F0FD1FB681B681A685F
S31508004C90FB681B6822F400521A60FB681B681A68D6
S31508004CA0FB681B6842F400521A60FB68012283F80D
S31508004CB05120FB68002283F85020032317E07B6904
S31508004CC0002B01D10023FB617B69013B7B61FB68FB
S31508004CD01B689A68BB681340BA689A420CBF0123DE
S31508004CE00023DBB21A46FB799A429BD10023184669
S31508004CF02037BD4680BD00BF0C00002080B586B0B9
S31508004D0002AFF860B9607A60FB685B68B3F5827FCA
S31508004D1011D1FB689B68B3F5004F04D0FB689B680C
S31508004D20B3F5806F07D1FB681B681A68FB681B68B8
S31508004D3022F040021A60FB685B68B3F5827F17D1E0
S31508004D40FB689B68B3F5806F12D17B680093BB68DC
S31508004D5000220121F868FFF749FF0346002B1AD005
S31508004D60FB685B6D43F02002FB685A65032313E07A
S31508004D707B680093BB6800228021F868FFF736FF3E
S31508004D800346002B07D0FB685B6D43F02002FB68E7
S31508004D905A65032300E0002318461037BD4680BD38
S31508004DA080B586B002AFF860B9607A607B68009318
S31508004DB0BB6801220221F868FFF718FF0346002B9B
S31508004DC007D0FB685B6D43F02002FB685A65032336
S31508004DD013E07B680093BB6800228021F868FFF720
S31508004DE005FF0346002B07D0FB685B6D43F02002E6
S31508004DF0FB685A65032300E0002318461037BD46B2
S31508004E0080BD80B582B000AF78607B68002B01D189
S31508004E10012342E07B6893F84130DBB2002B06D1D0
S31508004E207B68002283F840207868FDF793FD7B684D
S31508004E30242283F841207B681B68DA687B681B6834
S31508004E4022F40052DA60786800F072F97B681B6811
S31508004E501A697B681B6822F490421A617B681B6892
S31508004E605A697B681B6822F02A025A617B681B68AC
S31508004E70DA687B681B6842F40052DA607B680022B5
S31508004E805A647B68202283F841207B68202283F8B5
S31508004E9042207B6800225A63002318460837BD461D
S31508004EA080BD80B58AB002AFF860B9603B60134632
S31508004EB0FB8000237B61FB6893F84130DBB2202B33
S31508004EC075D1BB68002B02D0FB88002B01D10123CA
S31508004ED06EE0FB6800225A64FB68212283F84120B1
S31508004EE0FDF712FF7861FB68FA889A84FB68FA88EE
S31508004EF0DA84FB689B68B3F5805F08D1FB681B6999
S31508004F00002B04D10023FB61BB68BB6103E0BB68CF
S31508004F10FB610023BB612EE03B6800937B6900229E
S31508004F208021F86800F048F80346002B05D0FB6896
S31508004F30202283F8412003233AE0FB69002B0BD19A
S31508004F40BB691B881A46FB681B68C2F308025A60CD
S31508004F50BB690233BB6107E0FB691A78FB681B680B
S31508004F605A60FB690133FB61FB68DB8C9BB2013B32
S31508004F709AB2FB68DA84FB68DB8C9BB2002BCBD138
S31508004F803B6800937B6900224021F86800F014F81A
S31508004F900346002B05D0FB68202283F84120032313
S31508004FA006E0FB68202283F84120002300E0022364
S31508004FB018462037BD4680BD80B586B000AFF8607C
S31508004FC0B9603B601346FB713BE03B6AB3F1FF3FB8
S31508004FD037D0FDF799FE02463B68D31A3A6A9A42D9
S31508004FE002D33B6A002B01D103233AE0FB681B6816
S31508004FF0DB6803F00403002B23D0BB68802B20D08A
S31508005000BB68402B1DD0FB681B681B6803F00803B0
S31508005010082B16D100237B61FB681B681B687B6124
S31508005020FB681B685B687B617B69F86800F01DF8A4
S31508005030FB6808225A64FB68002283F84020012393
S315080050400FE0FB681B681A68BB681340BA689A4287
S315080050500CBF01230023DBB21A46FB799A42B4D06F
S31508005060002318461837BD4680BD80B495B000AFFA
S3150800507078607B681B680C337B637B6B53E8003F67
S315080050803B633B6B23F49073FB647B681B680C33B0
S31508005090FA6C3A64FB63F96B3A6C41E80023BB632C
S315080050A0BB6B002BE5D17B681B6814333B623B6AFC
S315080050B053E8003FFB61FB6923F00103BB647B688F
S315080050C01B681433BA6CFA62BB62B96AFA6A41E8B9
S315080050D000237B627B6A002BE5D17B681B6B012B67
S315080050E019D17B681B680C33FB60FB6853E8003FEB
S315080050F0BB60BB6823F010037B647B681B680C33BA
S315080051007A6CBA617B617969BA6941E800233B61C7
S315080051103B69002BE5D17B68202283F842207B6817
S3150800512000221A6300BF5437BD4680BC7047000092
S3150800513080B584B000AF78607B681B681B6923F470
S3150800514040517B68DA687B681B680A431A617B688A
S315080051509A687B681B691A437B685B691343BB6063
S315080051607B681B68DB6823F4B05323F00C037A686A
S315080051701268B9680B43D3607B681B685B6923F4C4
S3150800518040717B689A697B681B680A435A617B6829
S315080051901B682C4A934203D1FEF76EFDF86002E0C5
S315080051A0FEF756FDF860FA6813469B0013449A000A
S315080051B01A447B685B689B00B2FBF3F3224AA2FBA6
S315080051C003235B091901FA6813469B0013449A00E6
S315080051D01A447B685B689B00B2FBF3F21A4BA3FB8D
S315080051E002035B09642000FB03F3D31A1B01323365
S315080051F0154AA2FB03235B0903F0F0031944FA6876
S3150800520013469B0013449A001A447B685B689B000C
S31508005210B2FBF3F20C4BA3FB02035B09642000FB11
S3150800522003F3D31A1B013233074AA2FB03235B0994
S3150800523003F00F027B681B680A449A6000BF1037A8
S31508005240BD4680BD003801401F85EB51002B2DE976
S31508005250F0471D46BBBF03F100431D4600232D231F
S3150800526088B01446B8BF1446129A109E1370149B41
S31508005270DDF84CA023F02008B8F1460F05D0B8F1A8
S31508005280450F00D10136022300E0032307AA049242
S3150800529006AACDE902A2CDE9003622462B4601F040
S315080052A00FF9B8F1470F074619D1119BDB070ED541
S315080052B000EB06090022002320462946FBF77EFB61
S315080052C008B1CDF81C903022079B4B451ED33846B3
S315080052D0079B159ADB1B136008B0BDE8F087B8F189
S315080052E0460F00EB0609E5D10378302B0AD10022D8
S315080052F0002320462946FBF761FB18B9C6F10106CB
S31508005300CAF80060DAF800309944D3E7591C0791C7
S315080053101A70D9E7F7B50029B6BF2D232B234942C2
S3150800532009290270437029DD0DF107031D460A2776
S31508005330B1FBF7F61A4607FB1614303402F8014C8F
S315080053400C46632C314603F1FF33F1DC3031941EF1
S3150800535003F8011C2346411CAB420AD30DF109038D
S315080053609B1AAC4288BF002302330344181A03B0C1
S31508005370F0BD13F8016B01F8016FEDE7302330310A
S315080053808370C170031DF1E72DE9F04F91B00C460B
S31508005390DDF8688016461F46054600F07DFF03685F
S315080053A018460893FAF7DEFE00230E93D8F8003065
S315080053B00990073323F0070303F1080294F818A0AD
S315080053C0D4F800B0C8F80020D3E9008929F00043D2
S315080053D00B93CDF828804FF0FF32DDE90A01C4E9C6
S315080053E012899C4BFBF71CFB70BBDDE90A014FF0E9
S315080053F0FF32984BFBF7F6FA30BB002200234046F3
S315080054004946FBF7E5FA10B12D2384F84330924A52
S31508005410924BBAF1470F94BF9046984603234FF034
S31508005420000923612BF004032360334621462846EE
S3150800543000970FAA00F0D4F9013040F090804FF0A1
S31508005440FF3011B0BDE8F08F42464B46404649460C
S31508005450FBF7E6FA48B14B46002BB8BF2D23804A26
S31508005460B8BF84F843307F4BD3E763680AF0DF019F
S315080054705A1C3FD10623636000224BF480632360E5
S3150800548006920EAACDE904A20DAA03920DF13302E3
S31508005490CDE9013263684246009328464B460A9195
S315080054A0FFF7D4FE0A99804647290D9928D1C81CCA
S315080054B002DB6368994240DDAAF1020A5FFA8AFABA
S315080054C05246013904F150000D91FFF723FF0E9A59
S315080054D081461318012A236102DC2268D20701D506
S315080054E0013323619DF83330002B9ED02D2384F899
S315080054F043309AE74729BFD1002BBDD10123BAE72C
